{
  "_format": "hh-sol-artifact-1",
  "contractName": "MySBT",
  "sourceName": "contracts/MySBT.sol",
  "abi": [
    {
      "inputs": [],
      "stateMutability": "nonpayable",
      "type": "constructor"
    },
    {
      "anonymous": false,
      "inputs": [
        {
          "indexed": true,
          "internalType": "address",
          "name": "owner",
          "type": "address"
        },
        {
          "indexed": true,
          "internalType": "address",
          "name": "approved",
          "type": "address"
        },
        {
          "indexed": true,
          "internalType": "uint256",
          "name": "tokenId",
          "type": "uint256"
        }
      ],
      "name": "Approval",
      "type": "event"
    },
    {
      "anonymous": false,
      "inputs": [
        {
          "indexed": true,
          "internalType": "address",
          "name": "owner",
          "type": "address"
        },
        {
          "indexed": true,
          "internalType": "address",
          "name": "operator",
          "type": "address"
        },
        {
          "indexed": false,
          "internalType": "bool",
          "name": "approved",
          "type": "bool"
        }
      ],
      "name": "ApprovalForAll",
      "type": "event"
    },
    {
      "anonymous": false,
      "inputs": [
        {
          "indexed": true,
          "internalType": "address",
          "name": "from",
          "type": "address"
        },
        {
          "indexed": true,
          "internalType": "address",
          "name": "to",
          "type": "address"
        },
        {
          "indexed": true,
          "internalType": "uint256",
          "name": "tokenId",
          "type": "uint256"
        }
      ],
      "name": "Transfer",
      "type": "event"
    },
    {
      "inputs": [
        {
          "internalType": "address",
          "name": "to",
          "type": "address"
        },
        {
          "internalType": "uint256",
          "name": "tokenId",
          "type": "uint256"
        }
      ],
      "name": "approve",
      "outputs": [],
      "stateMutability": "nonpayable",
      "type": "function"
    },
    {
      "inputs": [
        {
          "internalType": "address",
          "name": "owner",
          "type": "address"
        }
      ],
      "name": "balanceOf",
      "outputs": [
        {
          "internalType": "uint256",
          "name": "",
          "type": "uint256"
        }
      ],
      "stateMutability": "view",
      "type": "function"
    },
    {
      "inputs": [
        {
          "internalType": "uint256",
          "name": "tokenId",
          "type": "uint256"
        }
      ],
      "name": "getApproved",
      "outputs": [
        {
          "internalType": "address",
          "name": "",
          "type": "address"
        }
      ],
      "stateMutability": "view",
      "type": "function"
    },
    {
      "inputs": [
        {
          "internalType": "address",
          "name": "owner",
          "type": "address"
        },
        {
          "internalType": "address",
          "name": "operator",
          "type": "address"
        }
      ],
      "name": "isApprovedForAll",
      "outputs": [
        {
          "internalType": "bool",
          "name": "",
          "type": "bool"
        }
      ],
      "stateMutability": "view",
      "type": "function"
    },
    {
      "inputs": [],
      "name": "name",
      "outputs": [
        {
          "internalType": "string",
          "name": "",
          "type": "string"
        }
      ],
      "stateMutability": "view",
      "type": "function"
    },
    {
      "inputs": [
        {
          "internalType": "uint256",
          "name": "tokenId",
          "type": "uint256"
        }
      ],
      "name": "ownerOf",
      "outputs": [
        {
          "internalType": "address",
          "name": "",
          "type": "address"
        }
      ],
      "stateMutability": "view",
      "type": "function"
    },
    {
      "inputs": [
        {
          "internalType": "address",
          "name": "to",
          "type": "address"
        }
      ],
      "name": "safeMint",
      "outputs": [],
      "stateMutability": "nonpayable",
      "type": "function"
    },
    {
      "inputs": [
        {
          "internalType": "address",
          "name": "operator",
          "type": "address"
        },
        {
          "internalType": "bool",
          "name": "approved",
          "type": "bool"
        }
      ],
      "name": "setApprovalForAll",
      "outputs": [],
      "stateMutability": "nonpayable",
      "type": "function"
    },
    {
      "inputs": [
        {
          "internalType": "bytes4",
          "name": "interfaceId",
          "type": "bytes4"
        }
      ],
      "name": "supportsInterface",
      "outputs": [
        {
          "internalType": "bool",
          "name": "",
          "type": "bool"
        }
      ],
      "stateMutability": "view",
      "type": "function"
    },
    {
      "inputs": [],
      "name": "symbol",
      "outputs": [
        {
          "internalType": "string",
          "name": "",
          "type": "string"
        }
      ],
      "stateMutability": "view",
      "type": "function"
    },
    {
      "inputs": [
        {
          "internalType": "uint256",
          "name": "tokenId",
          "type": "uint256"
        }
      ],
      "name": "tokenURI",
      "outputs": [
        {
          "internalType": "string",
          "name": "",
          "type": "string"
        }
      ],
      "stateMutability": "view",
      "type": "function"
    }
  ],
  "bytecode": "0x60806040523480156200001157600080fd5b506040518060400160405280600581526020017f4d795342540000000000000000000000000000000000000000000000000000008152506040518060400160405280600481526020017f4d53425400000000000000000000000000000000000000000000000000000000815250816000908051906020019062000096929190620000b8565b508060019080519060200190620000af929190620000b8565b505050620001cd565b828054620000c69062000168565b90600052602060002090601f016020900481019282620000ea576000855562000136565b82601f106200010557805160ff191683800117855562000136565b8280016001018555821562000136579182015b828111156200013557825182559160200191906001019062000118565b5b50905062000145919062000149565b5090565b5b80821115620001645760008160009055506001016200014a565b5090565b600060028204905060018216806200018157607f821691505b602082108114156200019857620001976200019e565b5b50919050565b7f4e487b7100000000000000000000000000000000000000000000000000000000600052602260045260246000fd5b611c3e80620001dd6000396000f3fe608060405234801561001057600080fd5b50600436106100a95760003560e01c80636352211e116100715780636352211e1461016457806370a082311461019457806395d89b41146101c4578063a22cb465146101e2578063c87b56dd146101fe578063e985e9c51461022e576100a9565b806301ffc9a7146100ae57806306fdde03146100de578063081812fc146100fc578063095ea7b31461012c57806340d097c314610148575b600080fd5b6100c860048036038101906100c391906112f7565b61025e565b6040516100d59190611765565b60405180910390f35b6100e6610340565b6040516100f39190611780565b60405180910390f35b61011660048036038101906101119190611349565b6103d2565b60405161012391906116fe565b60405180910390f35b610146600480360381019061014191906112bb565b610418565b005b610162600480360381019061015d919061121a565b610530565b005b61017e60048036038101906101799190611349565b61055d565b60405161018b91906116fe565b60405180910390f35b6101ae60048036038101906101a9919061121a565b61060f565b6040516101bb91906118a2565b60405180910390f35b6101cc6106c7565b6040516101d99190611780565b60405180910390f35b6101fc60048036038101906101f7919061127f565b610759565b005b61021860048036038101906102139190611349565b61076f565b6040516102259190611780565b60405180910390f35b61024860048036038101906102439190611243565b6107d7565b6040516102559190611765565b60405180910390f35b60007f591d4bc0000000000000000000000000000000000000000000000000000000007bffffffffffffffffffffffffffffffffffffffffffffffffffffffff1916827bffffffffffffffffffffffffffffffffffffffffffffffffffffffff1916148061032957507f5b5e139f000000000000000000000000000000000000000000000000000000007bffffffffffffffffffffffffffffffffffffffffffffffffffffffff1916827bffffffffffffffffffffffffffffffffffffffffffffffffffffffff1916145b8061033957506103388261086b565b5b9050919050565b60606000805461034f90611a62565b80601f016020809104026020016040519081016040528092919081815260200182805461037b90611a62565b80156103c85780601f1061039d576101008083540402835291602001916103c8565b820191906000526020600020905b8154815290600101906020018083116103ab57829003601f168201915b5050505050905090565b60006103dd826108d5565b6004600083815260200190815260200160002060009054906101000a900473ffffffffffffffffffffffffffffffffffffffff169050919050565b60006104238261055d565b90508073ffffffffffffffffffffffffffffffffffffffff168373ffffffffffffffffffffffffffffffffffffffff161415610494576040517f08c379a000000000000000000000000000000000000000000000000000000000815260040161048b90611882565b60405180910390fd5b8073ffffffffffffffffffffffffffffffffffffffff166104b3610920565b73ffffffffffffffffffffffffffffffffffffffff1614806104e257506104e1816104dc610920565b6107d7565b5b610521576040517f08c379a000000000000000000000000000000000000000000000000000000000815260040161051890611822565b60405180910390fd5b61052b8383610928565b505050565b6000600654905061054182826109e1565b6006600081548092919061055490611a94565b91905055505050565b6000806002600084815260200190815260200160002060009054906101000a900473ffffffffffffffffffffffffffffffffffffffff169050600073ffffffffffffffffffffffffffffffffffffffff168173ffffffffffffffffffffffffffffffffffffffff161415610606576040517f08c379a00000000000000000000000000000000000000000000000000000000081526004016105fd90611862565b60405180910390fd5b80915050919050565b60008073ffffffffffffffffffffffffffffffffffffffff168273ffffffffffffffffffffffffffffffffffffffff161415610680576040517f08c379a000000000000000000000000000000000000000000000000000000000815260040161067790611802565b60405180910390fd5b600360008373ffffffffffffffffffffffffffffffffffffffff1673ffffffffffffffffffffffffffffffffffffffff168152602001908152602001600020549050919050565b6060600180546106d690611a62565b80601f016020809104026020016040519081016040528092919081815260200182805461070290611a62565b801561074f5780601f106107245761010080835404028352916020019161074f565b820191906000526020600020905b81548152906001019060200180831161073257829003601f168201915b5050505050905090565b61076b610764610920565b83836109ff565b5050565b606061077a826108d5565b6000610784610b6c565b905060008151116107a457604051806020016040528060008152506107cf565b806107ae84610b83565b6040516020016107bf9291906116da565b6040516020818303038152906040525b915050919050565b6000600560008473ffffffffffffffffffffffffffffffffffffffff1673ffffffffffffffffffffffffffffffffffffffff16815260200190815260200160002060008373ffffffffffffffffffffffffffffffffffffffff1673ffffffffffffffffffffffffffffffffffffffff16815260200190815260200160002060009054906101000a900460ff16905092915050565b60007f01ffc9a7000000000000000000000000000000000000000000000000000000007bffffffffffffffffffffffffffffffffffffffffffffffffffffffff1916827bffffffffffffffffffffffffffffffffffffffffffffffffffffffff1916149050919050565b6108de81610d30565b61091d576040517f08c379a000000000000000000000000000000000000000000000000000000000815260040161091490611862565b60405180910390fd5b50565b600033905090565b816004600083815260200190815260200160002060006101000a81548173ffffffffffffffffffffffffffffffffffffffff021916908373ffffffffffffffffffffffffffffffffffffffff160217905550808273ffffffffffffffffffffffffffffffffffffffff1661099b8361055d565b73ffffffffffffffffffffffffffffffffffffffff167f8c5be1e5ebec7d5bd14f71427d1e84f3dd0314c0f7b2291e5b200ac8c7c3b92560405160405180910390a45050565b6109fb828260405180602001604052806000815250610d9c565b5050565b8173ffffffffffffffffffffffffffffffffffffffff168373ffffffffffffffffffffffffffffffffffffffff161415610a6e576040517f08c379a0000000000000000000000000000000000000000000000000000000008152600401610a65906117e2565b60405180910390fd5b80600560008573ffffffffffffffffffffffffffffffffffffffff1673ffffffffffffffffffffffffffffffffffffffff16815260200190815260200160002060008473ffffffffffffffffffffffffffffffffffffffff1673ffffffffffffffffffffffffffffffffffffffff16815260200190815260200160002060006101000a81548160ff0219169083151502179055508173ffffffffffffffffffffffffffffffffffffffff168373ffffffffffffffffffffffffffffffffffffffff167f17307eab39ab6107e8899845ad3d59bd9653f200f220920489ca2b5937696c3183604051610b5f9190611765565b60405180910390a3505050565b606060405180602001604052806000815250905090565b60606000821415610bcb576040518060400160405280600181526020017f30000000000000000000000000000000000000000000000000000000000000008152509050610d2b565b600082905060005b60008214610bfd578080610be690611a94565b915050600a82610bf69190611956565b9150610bd3565b60008167ffffffffffffffff811115610c3f577f4e487b7100000000000000000000000000000000000000000000000000000000600052604160045260246000fd5b6040519080825280601f01601f191660200182016040528015610c715781602001600182028036833780820191505090505b5090505b60008514610d2457600182610c8a9190611987565b9150600a85610c999190611add565b6030610ca59190611900565b60f81b818381518110610ce1577f4e487b7100000000000000000000000000000000000000000000000000000000600052603260045260246000fd5b60200101907effffffffffffffffffffffffffffffffffffffffffffffffffffffffffffff1916908160001a905350600a85610d1d9190611956565b9450610c75565b8093505050505b919050565b60008073ffffffffffffffffffffffffffffffffffffffff166002600084815260200190815260200160002060009054906101000a900473ffffffffffffffffffffffffffffffffffffffff1673ffffffffffffffffffffffffffffffffffffffff1614159050919050565b610da68383610df7565b610db36000848484610fd1565b610df2576040517f08c379a0000000000000000000000000000000000000000000000000000000008152600401610de9906117a2565b60405180910390fd5b505050565b600073ffffffffffffffffffffffffffffffffffffffff168273ffffffffffffffffffffffffffffffffffffffff161415610e67576040517f08c379a0000000000000000000000000000000000000000000000000000000008152600401610e5e90611842565b60405180910390fd5b610e7081610d30565b15610eb0576040517f08c379a0000000000000000000000000000000000000000000000000000000008152600401610ea7906117c2565b60405180910390fd5b610ebc60008383611168565b6001600360008473ffffffffffffffffffffffffffffffffffffffff1673ffffffffffffffffffffffffffffffffffffffff1681526020019081526020016000206000828254610f0c9190611900565b92505081905550816002600083815260200190815260200160002060006101000a81548173ffffffffffffffffffffffffffffffffffffffff021916908373ffffffffffffffffffffffffffffffffffffffff160217905550808273ffffffffffffffffffffffffffffffffffffffff16600073ffffffffffffffffffffffffffffffffffffffff167fddf252ad1be2c89b69c2b068fc378daa952ba7f163c4a11628f55a4df523b3ef60405160405180910390a4610fcd6000838361116d565b5050565b6000610ff28473ffffffffffffffffffffffffffffffffffffffff16611172565b1561115b578373ffffffffffffffffffffffffffffffffffffffff1663150b7a0261101b610920565b8786866040518563ffffffff1660e01b815260040161103d9493929190611719565b602060405180830381600087803b15801561105757600080fd5b505af192505050801561108857506040513d601f19601f820116820180604052508101906110859190611320565b60015b61110b573d80600081146110b8576040519150601f19603f3d011682016040523d82523d6000602084013e6110bd565b606091505b50600081511415611103576040517f08c379a00000000000000000000000000000000000000000000000000000000081526004016110fa906117a2565b60405180910390fd5b805181602001fd5b63150b7a0260e01b7bffffffffffffffffffffffffffffffffffffffffffffffffffffffff1916817bffffffffffffffffffffffffffffffffffffffffffffffffffffffff191614915050611160565b600190505b949350505050565b505050565b505050565b6000808273ffffffffffffffffffffffffffffffffffffffff16803b806020016040519081016040528181526000908060200190933c51119050919050565b6000813590506111c081611bac565b92915050565b6000813590506111d581611bc3565b92915050565b6000813590506111ea81611bda565b92915050565b6000815190506111ff81611bda565b92915050565b60008135905061121481611bf1565b92915050565b60006020828403121561122c57600080fd5b600061123a848285016111b1565b91505092915050565b6000806040838503121561125657600080fd5b6000611264858286016111b1565b9250506020611275858286016111b1565b9150509250929050565b6000806040838503121561129257600080fd5b60006112a0858286016111b1565b92505060206112b1858286016111c6565b9150509250929050565b600080604083850312156112ce57600080fd5b60006112dc858286016111b1565b92505060206112ed85828601611205565b9150509250929050565b60006020828403121561130957600080fd5b6000611317848285016111db565b91505092915050565b60006020828403121561133257600080fd5b6000611340848285016111f0565b91505092915050565b60006020828403121561135b57600080fd5b600061136984828501611205565b91505092915050565b61137b816119bb565b82525050565b61138a816119cd565b82525050565b600061139b826118bd565b6113a581856118d3565b93506113b5818560208601611a2f565b6113be81611b9b565b840191505092915050565b60006113d4826118c8565b6113de81856118e4565b93506113ee818560208601611a2f565b6113f781611b9b565b840191505092915050565b600061140d826118c8565b61141781856118f5565b9350611427818560208601611a2f565b80840191505092915050565b60006114406032836118e4565b91507f4552433732313a207472616e7366657220746f206e6f6e20455243373231526560008301527f63656976657220696d706c656d656e74657200000000000000000000000000006020830152604082019050919050565b60006114a6601c836118e4565b91507f4552433732313a20746f6b656e20616c7265616479206d696e746564000000006000830152602082019050919050565b60006114e66019836118e4565b91507f4552433732313a20617070726f766520746f2063616c6c6572000000000000006000830152602082019050919050565b60006115266029836118e4565b91507f4552433732313a2061646472657373207a65726f206973206e6f74206120766160008301527f6c6964206f776e657200000000000000000000000000000000000000000000006020830152604082019050919050565b600061158c603e836118e4565b91507f4552433732313a20617070726f76652063616c6c6572206973206e6f7420746f60008301527f6b656e206f776e6572206e6f7220617070726f76656420666f7220616c6c00006020830152604082019050919050565b60006115f26020836118e4565b91507f4552433732313a206d696e7420746f20746865207a65726f20616464726573736000830152602082019050919050565b60006116326018836118e4565b91507f4552433732313a20696e76616c696420746f6b656e20494400000000000000006000830152602082019050919050565b60006116726021836118e4565b91507f4552433732313a20617070726f76616c20746f2063757272656e74206f776e6560008301527f72000000000000000000000000000000000000000000000000000000000000006020830152604082019050919050565b6116d481611a25565b82525050565b60006116e68285611402565b91506116f28284611402565b91508190509392505050565b60006020820190506117136000830184611372565b92915050565b600060808201905061172e6000830187611372565b61173b6020830186611372565b61174860408301856116cb565b818103606083015261175a8184611390565b905095945050505050565b600060208201905061177a6000830184611381565b92915050565b6000602082019050818103600083015261179a81846113c9565b905092915050565b600060208201905081810360008301526117bb81611433565b9050919050565b600060208201905081810360008301526117db81611499565b9050919050565b600060208201905081810360008301526117fb816114d9565b9050919050565b6000602082019050818103600083015261181b81611519565b9050919050565b6000602082019050818103600083015261183b8161157f565b9050919050565b6000602082019050818103600083015261185b816115e5565b9050919050565b6000602082019050818103600083015261187b81611625565b9050919050565b6000602082019050818103600083015261189b81611665565b9050919050565b60006020820190506118b760008301846116cb565b92915050565b600081519050919050565b600081519050919050565b600082825260208201905092915050565b600082825260208201905092915050565b600081905092915050565b600061190b82611a25565b915061191683611a25565b9250827fffffffffffffffffffffffffffffffffffffffffffffffffffffffffffffffff0382111561194b5761194a611b0e565b5b828201905092915050565b600061196182611a25565b915061196c83611a25565b92508261197c5761197b611b3d565b5b828204905092915050565b600061199282611a25565b915061199d83611a25565b9250828210156119b0576119af611b0e565b5b828203905092915050565b60006119c682611a05565b9050919050565b60008115159050919050565b60007fffffffff0000000000000000000000000000000000000000000000000000000082169050919050565b600073ffffffffffffffffffffffffffffffffffffffff82169050919050565b6000819050919050565b60005b83811015611a4d578082015181840152602081019050611a32565b83811115611a5c576000848401525b50505050565b60006002820490506001821680611a7a57607f821691505b60208210811415611a8e57611a8d611b6c565b5b50919050565b6000611a9f82611a25565b91507fffffffffffffffffffffffffffffffffffffffffffffffffffffffffffffffff821415611ad257611ad1611b0e565b5b600182019050919050565b6000611ae882611a25565b9150611af383611a25565b925082611b0357611b02611b3d565b5b828206905092915050565b7f4e487b7100000000000000000000000000000000000000000000000000000000600052601160045260246000fd5b7f4e487b7100000000000000000000000000000000000000000000000000000000600052601260045260246000fd5b7f4e487b7100000000000000000000000000000000000000000000000000000000600052602260045260246000fd5b6000601f19601f8301169050919050565b611bb5816119bb565b8114611bc057600080fd5b50565b611bcc816119cd565b8114611bd757600080fd5b50565b611be3816119d9565b8114611bee57600080fd5b50565b611bfa81611a25565b8114611c0557600080fd5b5056fea264697066735822122096487efc8941b2bff7faca848050f8942c3bf7cc10d613ec71444e553f22204564736f6c63430008000033",
  "linkReferences": {},
  "deployedLinkReferences": {}
}